{
  "_format": "hh-sol-artifact-1",
  "contractName": "DaiMock",
  "sourceName": "contracts/DaiMock.sol",
  "abi": [
    {
      "inputs": [
        {
          "internalType": "string",
          "name": "_name",
          "type": "string"
        },
        {
          "internalType": "string",
          "name": "_symbol",
          "type": "string"
        },
        {
          "internalType": "uint8",
          "name": "_decimals",
          "type": "uint8"
        }
      ],
      "stateMutability": "nonpayable",
      "type": "constructor"
    },
    {
      "anonymous": false,
      "inputs": [
        {
          "indexed": true,
          "internalType": "address",
          "name": "owner",
          "type": "address"
        },
        {
          "indexed": true,
          "internalType": "address",
          "name": "spender",
          "type": "address"
        },
        {
          "indexed": false,
          "internalType": "uint256",
          "name": "amount",
          "type": "uint256"
        }
      ],
      "name": "Approval",
      "type": "event"
    },
    {
      "anonymous": false,
      "inputs": [
        {
          "indexed": true,
          "internalType": "address",
          "name": "from",
          "type": "address"
        },
        {
          "indexed": true,
          "internalType": "address",
          "name": "to",
          "type": "address"
        },
        {
          "indexed": false,
          "internalType": "uint256",
          "name": "amount",
          "type": "uint256"
        }
      ],
      "name": "Transfer",
      "type": "event"
    },
    {
      "inputs": [],
      "name": "DOMAIN_SEPARATOR",
      "outputs": [
        {
          "internalType": "bytes32",
          "name": "",
          "type": "bytes32"
        }
      ],
      "stateMutability": "view",
      "type": "function"
    },
    {
      "inputs": [
        {
          "internalType": "address",
          "name": "",
          "type": "address"
        },
        {
          "internalType": "address",
          "name": "",
          "type": "address"
        }
      ],
      "name": "allowance",
      "outputs": [
        {
          "internalType": "uint256",
          "name": "",
          "type": "uint256"
        }
      ],
      "stateMutability": "view",
      "type": "function"
    },
    {
      "inputs": [
        {
          "internalType": "address",
          "name": "spender",
          "type": "address"
        },
        {
          "internalType": "uint256",
          "name": "amount",
          "type": "uint256"
        }
      ],
      "name": "approve",
      "outputs": [
        {
          "internalType": "bool",
          "name": "",
          "type": "bool"
        }
      ],
      "stateMutability": "nonpayable",
      "type": "function"
    },
    {
      "inputs": [
        {
          "internalType": "address",
          "name": "",
          "type": "address"
        }
      ],
      "name": "balanceOf",
      "outputs": [
        {
          "internalType": "uint256",
          "name": "",
          "type": "uint256"
        }
      ],
      "stateMutability": "view",
      "type": "function"
    },
    {
      "inputs": [
        {
          "internalType": "address",
          "name": "from",
          "type": "address"
        },
        {
          "internalType": "uint256",
          "name": "value",
          "type": "uint256"
        }
      ],
      "name": "burn",
      "outputs": [],
      "stateMutability": "nonpayable",
      "type": "function"
    },
    {
      "inputs": [],
      "name": "decimals",
      "outputs": [
        {
          "internalType": "uint8",
          "name": "",
          "type": "uint8"
        }
      ],
      "stateMutability": "view",
      "type": "function"
    },
    {
      "inputs": [
        {
          "internalType": "address",
          "name": "to",
          "type": "address"
        },
        {
          "internalType": "uint256",
          "name": "value",
          "type": "uint256"
        }
      ],
      "name": "mint",
      "outputs": [],
      "stateMutability": "nonpayable",
      "type": "function"
    },
    {
      "inputs": [],
      "name": "name",
      "outputs": [
        {
          "internalType": "string",
          "name": "",
          "type": "string"
        }
      ],
      "stateMutability": "view",
      "type": "function"
    },
    {
      "inputs": [
        {
          "internalType": "address",
          "name": "",
          "type": "address"
        }
      ],
      "name": "nonces",
      "outputs": [
        {
          "internalType": "uint256",
          "name": "",
          "type": "uint256"
        }
      ],
      "stateMutability": "view",
      "type": "function"
    },
    {
      "inputs": [
        {
          "internalType": "address",
          "name": "owner",
          "type": "address"
        },
        {
          "internalType": "address",
          "name": "spender",
          "type": "address"
        },
        {
          "internalType": "uint256",
          "name": "value",
          "type": "uint256"
        },
        {
          "internalType": "uint256",
          "name": "deadline",
          "type": "uint256"
        },
        {
          "internalType": "uint8",
          "name": "v",
          "type": "uint8"
        },
        {
          "internalType": "bytes32",
          "name": "r",
          "type": "bytes32"
        },
        {
          "internalType": "bytes32",
          "name": "s",
          "type": "bytes32"
        }
      ],
      "name": "permit",
      "outputs": [],
      "stateMutability": "nonpayable",
      "type": "function"
    },
    {
      "inputs": [],
      "name": "symbol",
      "outputs": [
        {
          "internalType": "string",
          "name": "",
          "type": "string"
        }
      ],
      "stateMutability": "view",
      "type": "function"
    },
    {
      "inputs": [],
      "name": "totalSupply",
      "outputs": [
        {
          "internalType": "uint256",
          "name": "",
          "type": "uint256"
        }
      ],
      "stateMutability": "view",
      "type": "function"
    },
    {
      "inputs": [
        {
          "internalType": "address",
          "name": "to",
          "type": "address"
        },
        {
          "internalType": "uint256",
          "name": "amount",
          "type": "uint256"
        }
      ],
      "name": "transfer",
      "outputs": [
        {
          "internalType": "bool",
          "name": "",
          "type": "bool"
        }
      ],
      "stateMutability": "nonpayable",
      "type": "function"
    },
    {
      "inputs": [
        {
          "internalType": "address",
          "name": "from",
          "type": "address"
        },
        {
          "internalType": "address",
          "name": "to",
          "type": "address"
        },
        {
          "internalType": "uint256",
          "name": "amount",
          "type": "uint256"
        }
      ],
      "name": "transferFrom",
      "outputs": [
        {
          "internalType": "bool",
          "name": "",
          "type": "bool"
        }
      ],
      "stateMutability": "nonpayable",
      "type": "function"
    }
  ],
  "bytecode": "0x60e06040523480156200001157600080fd5b50604051620010e2380380620010e283398101604081905262000034916200028c565b82828282600090805190602001906200004f9291906200013b565b508151620000659060019060208501906200013b565b507fff0000000000000000000000000000000000000000000000000000000000000060f882901b166080524660a0526200009e620000ae565b60c052506200043d945050505050565b60007f8b73c3c69bb8fe3d512ecc4cf759cc79239f7b179b0ffacaa9a75d522b39400f6000604051620000e291906200030d565b6040519081900381206200012092917fc89efdaa54c0f20c7adf612882df0950f5a951637e0307cdcb4c672f298b8bc69046903090602001620003b2565b60405160208183030381529060405280519060200120905090565b8280546200014990620003ea565b90600052602060002090601f0160209004810192826200016d5760008555620001b8565b82601f106200018857805160ff1916838001178555620001b8565b82800160010185558215620001b8579182015b82811115620001b85782518255916020019190600101906200019b565b50620001c6929150620001ca565b5090565b5b80821115620001c65760008155600101620001cb565b600082601f830112620001f2578081fd5b81516001600160401b03808211156200020f576200020f62000427565b6040516020601f8401601f191682018101838111838210171562000237576200023762000427565b60405283825285840181018710156200024e578485fd5b8492505b8383101562000271578583018101518284018201529182019162000252565b838311156200028257848185840101525b5095945050505050565b600080600060608486031215620002a1578283fd5b83516001600160401b0380821115620002b8578485fd5b620002c687838801620001e1565b94506020860151915080821115620002dc578384fd5b50620002eb86828701620001e1565b925050604084015160ff8116811462000302578182fd5b809150509250925092565b81546000908190600281046001808316806200032a57607f831692505b60208084108214156200034b57634e487b7160e01b87526022600452602487fd5b8180156200036257600181146200037457620003a4565b60ff19861689528489019650620003a4565b6200037f8a620003de565b885b868110156200039c5781548b82015290850190830162000381565b505084890196505b509498975050505050505050565b9485526020850193909352604084019190915260608301526001600160a01b0316608082015260a00190565b60009081526020902090565b600281046001821680620003ff57607f821691505b602082108114156200042157634e487b7160e01b600052602260045260246000fd5b50919050565b634e487b7160e01b600052604160045260246000fd5b60805160f81c60a05160c051610c7262000470600039600061043901526000610405015260006103df0152610c726000f3fe608060405234801561001057600080fd5b50600436106100ea5760003560e01c806370a082311161008c5780639dc29fac116100665780639dc29fac146101b5578063a9059cbb146101c8578063d505accf146101db578063dd62ed3e146101ee576100ea565b806370a08231146101875780637ecebe001461019a57806395d89b41146101ad576100ea565b806323b872dd116100c857806323b872dd14610142578063313ce567146101555780633644e5151461016a57806340c10f1914610172576100ea565b806306fdde03146100ef578063095ea7b31461010d57806318160ddd1461012d575b600080fd5b6100f7610201565b6040516101049190610ad0565b60405180910390f35b61012061011b36600461095f565b61028f565b6040516101049190610a3e565b6101356102f9565b6040516101049190610a49565b6101206101503660046108b3565b6102ff565b61015d6103dd565b6040516101049190610b82565b610135610401565b61018561018036600461095f565b61045e565b005b610135610195366004610860565b61046c565b6101356101a8366004610860565b61047e565b6100f7610490565b6101856101c336600461095f565b61049d565b6101206101d636600461095f565b6104a7565b6101856101e93660046108ee565b61050b565b6101356101fc366004610881565b6106de565b6000805461020e90610bcb565b80601f016020809104026020016040519081016040528092919081815260200182805461023a90610bcb565b80156102875780601f1061025c57610100808354040283529160200191610287565b820191906000526020600020905b81548152906001019060200180831161026a57829003601f168201915b505050505081565b3360008181526004602090815260408083206001600160a01b038716808552925280832085905551919290917f8c5be1e5ebec7d5bd14f71427d1e84f3dd0314c0f7b2291e5b200ac8c7c3b925906102e8908690610a49565b60405180910390a350600192915050565b60025481565b6001600160a01b0383166000908152600460209081526040808320338452909152812054600019811461035b576103368382610bb4565b6001600160a01b03861660009081526004602090815260408083203384529091529020555b6001600160a01b03851660009081526003602052604081208054859290610383908490610bb4565b90915550506001600160a01b0380851660008181526003602052604090819020805487019055519091871690600080516020610c1d833981519152906103ca908790610a49565b60405180910390a3506001949350505050565b7f000000000000000000000000000000000000000000000000000000000000000081565b60007f00000000000000000000000000000000000000000000000000000000000000004614610437576104326106fb565b610459565b7f00000000000000000000000000000000000000000000000000000000000000005b905090565b6104688282610784565b5050565b60036020526000908152604090205481565b60056020526000908152604090205481565b6001805461020e90610bcb565b61046882826107e2565b336000908152600360205260408120805483919083906104c8908490610bb4565b90915550506001600160a01b03831660008181526003602052604090819020805485019055513390600080516020610c1d833981519152906102e8908690610a49565b428410156105345760405162461bcd60e51b815260040161052b90610b4b565b60405180910390fd5b60006001610540610401565b6001600160a01b038a16600090815260056020908152604091829020805460018101909155915161059d927f6e71edae12b1b97f4d1f60370fef10105fa2faae0126114a169c64845d6126c9928e928e928e9290918e9101610a52565b604051602081830303815290604052805190602001206040516020016105c4929190610a23565b60405160208183030381529060405280519060200120858585604051600081526020016040526040516105fa9493929190610ab2565b6020604051602081039080840390855afa15801561061c573d6000803e3d6000fd5b5050604051601f1901519150506001600160a01b038116158015906106525750876001600160a01b0316816001600160a01b0316145b61066e5760405162461bcd60e51b815260040161052b90610b23565b6001600160a01b0390811660009081526004602090815260408083208a8516808552925291829020889055905190918916907f8c5be1e5ebec7d5bd14f71427d1e84f3dd0314c0f7b2291e5b200ac8c7c3b925906106cd908990610a49565b60405180910390a350505050505050565b600460209081526000928352604080842090915290825290205481565b60007f8b73c3c69bb8fe3d512ecc4cf759cc79239f7b179b0ffacaa9a75d522b39400f600060405161072d9190610988565b60405190819003812061076992917fc89efdaa54c0f20c7adf612882df0950f5a951637e0307cdcb4c672f298b8bc69046903090602001610a86565b60405160208183030381529060405280519060200120905090565b80600260008282546107969190610b9c565b90915550506001600160a01b03821660008181526003602052604080822080548501905551600080516020610c1d833981519152906107d6908590610a49565b60405180910390a35050565b6001600160a01b0382166000908152600360205260408120805483929061080a908490610bb4565b90915550506002805482900390556040516000906001600160a01b03841690600080516020610c1d833981519152906107d6908590610a49565b80356001600160a01b038116811461085b57600080fd5b919050565b600060208284031215610871578081fd5b61087a82610844565b9392505050565b60008060408385031215610893578081fd5b61089c83610844565b91506108aa60208401610844565b90509250929050565b6000806000606084860312156108c7578081fd5b6108d084610844565b92506108de60208501610844565b9150604084013590509250925092565b600080600080600080600060e0888a031215610908578283fd5b61091188610844565b965061091f60208901610844565b95506040880135945060608801359350608088013560ff81168114610942578384fd5b9699959850939692959460a0840135945060c09093013592915050565b60008060408385031215610971578182fd5b61097a83610844565b946020939093013593505050565b81546000908190600281046001808316806109a457607f831692505b60208084108214156109c457634e487b7160e01b87526022600452602487fd5b8180156109d857600181146109e957610a15565b60ff19861689528489019650610a15565b6109f28a610b90565b885b86811015610a0d5781548b8201529085019083016109f4565b505084890196505b509498975050505050505050565b61190160f01b81526002810192909252602282015260420190565b901515815260200190565b90815260200190565b9586526001600160a01b0394851660208701529290931660408501526060840152608083019190915260a082015260c00190565b9485526020850193909352604084019190915260608301526001600160a01b0316608082015260a00190565b93845260ff9290921660208401526040830152606082015260800190565b6000602080835283518082850152825b81811015610afc57858101830151858201604001528201610ae0565b81811115610b0d5783604083870101525b50601f01601f1916929092016040019392505050565b6020808252600e908201526d24a72b20a624a22fa9a4a3a722a960911b604082015260600190565b60208082526017908201527f5045524d49545f444541444c494e455f45585049524544000000000000000000604082015260600190565b60ff91909116815260200190565b60009081526020902090565b60008219821115610baf57610baf610c06565b500190565b600082821015610bc657610bc6610c06565b500390565b600281046001821680610bdf57607f821691505b60208210811415610c0057634e487b7160e01b600052602260045260246000fd5b50919050565b634e487b7160e01b600052601160045260246000fdfeddf252ad1be2c89b69c2b068fc378daa952ba7f163c4a11628f55a4df523b3efa2646970667358221220c07ebcbc4e28f26aea8a71d9f8be4e799723007a9591092efa64ff34b35fef5c64736f6c63430008000033",
  "linkReferences": {},
  "deployedLinkReferences": {}
}