{
  "_format": "hh-sol-artifact-1",
  "contractName": "Vault",
  "sourceName": "contracts/Vault.sol",
  "abi": [
    {
      "inputs": [
        {
          "internalType": "contract ERC20",
          "name": "_underlying",
          "type": "address"
        },
        {
          "internalType": "string",
          "name": "_name",
          "type": "string"
        },
        {
          "internalType": "string",
          "name": "_symbol",
          "type": "string"
        }
      ],
      "stateMutability": "nonpayable",
      "type": "constructor"
    },
    {
      "anonymous": false,
      "inputs": [
        {
          "indexed": true,
          "internalType": "address",
          "name": "owner",
          "type": "address"
        },
        {
          "indexed": true,
          "internalType": "address",
          "name": "spender",
          "type": "address"
        },
        {
          "indexed": false,
          "internalType": "uint256",
          "name": "amount",
          "type": "uint256"
        }
      ],
      "name": "Approval",
      "type": "event"
    },
    {
      "anonymous": false,
      "inputs": [
        {
          "indexed": true,
          "internalType": "address",
          "name": "caller",
          "type": "address"
        },
        {
          "indexed": true,
          "internalType": "address",
          "name": "owner",
          "type": "address"
        },
        {
          "indexed": false,
          "internalType": "uint256",
          "name": "assets",
          "type": "uint256"
        },
        {
          "indexed": false,
          "internalType": "uint256",
          "name": "shares",
          "type": "uint256"
        }
      ],
      "name": "Deposit",
      "type": "event"
    },
    {
      "anonymous": false,
      "inputs": [
        {
          "indexed": true,
          "internalType": "address",
          "name": "from",
          "type": "address"
        },
        {
          "indexed": true,
          "internalType": "address",
          "name": "to",
          "type": "address"
        },
        {
          "indexed": false,
          "internalType": "uint256",
          "name": "amount",
          "type": "uint256"
        }
      ],
      "name": "Transfer",
      "type": "event"
    },
    {
      "anonymous": false,
      "inputs": [
        {
          "indexed": true,
          "internalType": "address",
          "name": "caller",
          "type": "address"
        },
        {
          "indexed": true,
          "internalType": "address",
          "name": "receiver",
          "type": "address"
        },
        {
          "indexed": true,
          "internalType": "address",
          "name": "owner",
          "type": "address"
        },
        {
          "indexed": false,
          "internalType": "uint256",
          "name": "assets",
          "type": "uint256"
        },
        {
          "indexed": false,
          "internalType": "uint256",
          "name": "shares",
          "type": "uint256"
        }
      ],
      "name": "Withdraw",
      "type": "event"
    },
    {
      "inputs": [],
      "name": "DOMAIN_SEPARATOR",
      "outputs": [
        {
          "internalType": "bytes32",
          "name": "",
          "type": "bytes32"
        }
      ],
      "stateMutability": "view",
      "type": "function"
    },
    {
      "inputs": [],
      "name": "afterDepositHookCalledCounter",
      "outputs": [
        {
          "internalType": "uint256",
          "name": "",
          "type": "uint256"
        }
      ],
      "stateMutability": "view",
      "type": "function"
    },
    {
      "inputs": [
        {
          "internalType": "address",
          "name": "",
          "type": "address"
        },
        {
          "internalType": "address",
          "name": "",
          "type": "address"
        }
      ],
      "name": "allowance",
      "outputs": [
        {
          "internalType": "uint256",
          "name": "",
          "type": "uint256"
        }
      ],
      "stateMutability": "view",
      "type": "function"
    },
    {
      "inputs": [
        {
          "internalType": "address",
          "name": "spender",
          "type": "address"
        },
        {
          "internalType": "uint256",
          "name": "amount",
          "type": "uint256"
        }
      ],
      "name": "approve",
      "outputs": [
        {
          "internalType": "bool",
          "name": "",
          "type": "bool"
        }
      ],
      "stateMutability": "nonpayable",
      "type": "function"
    },
    {
      "inputs": [],
      "name": "asset",
      "outputs": [
        {
          "internalType": "contract ERC20",
          "name": "",
          "type": "address"
        }
      ],
      "stateMutability": "view",
      "type": "function"
    },
    {
      "inputs": [
        {
          "internalType": "address",
          "name": "",
          "type": "address"
        }
      ],
      "name": "balanceOf",
      "outputs": [
        {
          "internalType": "uint256",
          "name": "",
          "type": "uint256"
        }
      ],
      "stateMutability": "view",
      "type": "function"
    },
    {
      "inputs": [],
      "name": "beforeWithdrawHookCalledCounter",
      "outputs": [
        {
          "internalType": "uint256",
          "name": "",
          "type": "uint256"
        }
      ],
      "stateMutability": "view",
      "type": "function"
    },
    {
      "inputs": [
        {
          "internalType": "uint256",
          "name": "shares",
          "type": "uint256"
        }
      ],
      "name": "convertToAssets",
      "outputs": [
        {
          "internalType": "uint256",
          "name": "",
          "type": "uint256"
        }
      ],
      "stateMutability": "view",
      "type": "function"
    },
    {
      "inputs": [
        {
          "internalType": "uint256",
          "name": "assets",
          "type": "uint256"
        }
      ],
      "name": "convertToShares",
      "outputs": [
        {
          "internalType": "uint256",
          "name": "",
          "type": "uint256"
        }
      ],
      "stateMutability": "view",
      "type": "function"
    },
    {
      "inputs": [],
      "name": "decimals",
      "outputs": [
        {
          "internalType": "uint8",
          "name": "",
          "type": "uint8"
        }
      ],
      "stateMutability": "view",
      "type": "function"
    },
    {
      "inputs": [
        {
          "internalType": "uint256",
          "name": "assets",
          "type": "uint256"
        },
        {
          "internalType": "address",
          "name": "receiver",
          "type": "address"
        }
      ],
      "name": "deposit",
      "outputs": [
        {
          "internalType": "uint256",
          "name": "shares",
          "type": "uint256"
        }
      ],
      "stateMutability": "nonpayable",
      "type": "function"
    },
    {
      "inputs": [
        {
          "internalType": "address",
          "name": "",
          "type": "address"
        }
      ],
      "name": "maxDeposit",
      "outputs": [
        {
          "internalType": "uint256",
          "name": "",
          "type": "uint256"
        }
      ],
      "stateMutability": "view",
      "type": "function"
    },
    {
      "inputs": [
        {
          "internalType": "address",
          "name": "",
          "type": "address"
        }
      ],
      "name": "maxMint",
      "outputs": [
        {
          "internalType": "uint256",
          "name": "",
          "type": "uint256"
        }
      ],
      "stateMutability": "view",
      "type": "function"
    },
    {
      "inputs": [
        {
          "internalType": "address",
          "name": "owner",
          "type": "address"
        }
      ],
      "name": "maxRedeem",
      "outputs": [
        {
          "internalType": "uint256",
          "name": "",
          "type": "uint256"
        }
      ],
      "stateMutability": "view",
      "type": "function"
    },
    {
      "inputs": [
        {
          "internalType": "address",
          "name": "owner",
          "type": "address"
        }
      ],
      "name": "maxWithdraw",
      "outputs": [
        {
          "internalType": "uint256",
          "name": "",
          "type": "uint256"
        }
      ],
      "stateMutability": "view",
      "type": "function"
    },
    {
      "inputs": [
        {
          "internalType": "uint256",
          "name": "shares",
          "type": "uint256"
        },
        {
          "internalType": "address",
          "name": "receiver",
          "type": "address"
        }
      ],
      "name": "mint",
      "outputs": [
        {
          "internalType": "uint256",
          "name": "assets",
          "type": "uint256"
        }
      ],
      "stateMutability": "nonpayable",
      "type": "function"
    },
    {
      "inputs": [],
      "name": "name",
      "outputs": [
        {
          "internalType": "string",
          "name": "",
          "type": "string"
        }
      ],
      "stateMutability": "view",
      "type": "function"
    },
    {
      "inputs": [
        {
          "internalType": "address",
          "name": "",
          "type": "address"
        }
      ],
      "name": "nonces",
      "outputs": [
        {
          "internalType": "uint256",
          "name": "",
          "type": "uint256"
        }
      ],
      "stateMutability": "view",
      "type": "function"
    },
    {
      "inputs": [
        {
          "internalType": "address",
          "name": "owner",
          "type": "address"
        },
        {
          "internalType": "address",
          "name": "spender",
          "type": "address"
        },
        {
          "internalType": "uint256",
          "name": "value",
          "type": "uint256"
        },
        {
          "internalType": "uint256",
          "name": "deadline",
          "type": "uint256"
        },
        {
          "internalType": "uint8",
          "name": "v",
          "type": "uint8"
        },
        {
          "internalType": "bytes32",
          "name": "r",
          "type": "bytes32"
        },
        {
          "internalType": "bytes32",
          "name": "s",
          "type": "bytes32"
        }
      ],
      "name": "permit",
      "outputs": [],
      "stateMutability": "nonpayable",
      "type": "function"
    },
    {
      "inputs": [
        {
          "internalType": "uint256",
          "name": "assets",
          "type": "uint256"
        }
      ],
      "name": "previewDeposit",
      "outputs": [
        {
          "internalType": "uint256",
          "name": "",
          "type": "uint256"
        }
      ],
      "stateMutability": "view",
      "type": "function"
    },
    {
      "inputs": [
        {
          "internalType": "uint256",
          "name": "shares",
          "type": "uint256"
        }
      ],
      "name": "previewMint",
      "outputs": [
        {
          "internalType": "uint256",
          "name": "",
          "type": "uint256"
        }
      ],
      "stateMutability": "view",
      "type": "function"
    },
    {
      "inputs": [
        {
          "internalType": "uint256",
          "name": "shares",
          "type": "uint256"
        }
      ],
      "name": "previewRedeem",
      "outputs": [
        {
          "internalType": "uint256",
          "name": "",
          "type": "uint256"
        }
      ],
      "stateMutability": "view",
      "type": "function"
    },
    {
      "inputs": [
        {
          "internalType": "uint256",
          "name": "assets",
          "type": "uint256"
        }
      ],
      "name": "previewWithdraw",
      "outputs": [
        {
          "internalType": "uint256",
          "name": "",
          "type": "uint256"
        }
      ],
      "stateMutability": "view",
      "type": "function"
    },
    {
      "inputs": [
        {
          "internalType": "uint256",
          "name": "shares",
          "type": "uint256"
        },
        {
          "internalType": "address",
          "name": "receiver",
          "type": "address"
        },
        {
          "internalType": "address",
          "name": "owner",
          "type": "address"
        }
      ],
      "name": "redeem",
      "outputs": [
        {
          "internalType": "uint256",
          "name": "assets",
          "type": "uint256"
        }
      ],
      "stateMutability": "nonpayable",
      "type": "function"
    },
    {
      "inputs": [],
      "name": "symbol",
      "outputs": [
        {
          "internalType": "string",
          "name": "",
          "type": "string"
        }
      ],
      "stateMutability": "view",
      "type": "function"
    },
    {
      "inputs": [],
      "name": "totalAssets",
      "outputs": [
        {
          "internalType": "uint256",
          "name": "",
          "type": "uint256"
        }
      ],
      "stateMutability": "view",
      "type": "function"
    },
    {
      "inputs": [],
      "name": "totalSupply",
      "outputs": [
        {
          "internalType": "uint256",
          "name": "",
          "type": "uint256"
        }
      ],
      "stateMutability": "view",
      "type": "function"
    },
    {
      "inputs": [
        {
          "internalType": "address",
          "name": "to",
          "type": "address"
        },
        {
          "internalType": "uint256",
          "name": "amount",
          "type": "uint256"
        }
      ],
      "name": "transfer",
      "outputs": [
        {
          "internalType": "bool",
          "name": "",
          "type": "bool"
        }
      ],
      "stateMutability": "nonpayable",
      "type": "function"
    },
    {
      "inputs": [
        {
          "internalType": "address",
          "name": "from",
          "type": "address"
        },
        {
          "internalType": "address",
          "name": "to",
          "type": "address"
        },
        {
          "internalType": "uint256",
          "name": "amount",
          "type": "uint256"
        }
      ],
      "name": "transferFrom",
      "outputs": [
        {
          "internalType": "bool",
          "name": "",
          "type": "bool"
        }
      ],
      "stateMutability": "nonpayable",
      "type": "function"
    },
    {
      "inputs": [
        {
          "internalType": "uint256",
          "name": "assets",
          "type": "uint256"
        },
        {
          "internalType": "address",
          "name": "receiver",
          "type": "address"
        },
        {
          "internalType": "address",
          "name": "owner",
          "type": "address"
        }
      ],
      "name": "withdraw",
      "outputs": [
        {
          "internalType": "uint256",
          "name": "shares",
          "type": "uint256"
        }
      ],
      "stateMutability": "nonpayable",
      "type": "function"
    }
  ],
  "bytecode": "0x610100604052600060065560006007553480156200001c57600080fd5b5060405162001bad38038062001bad8339810160408190526200003f916200031d565b8282828181846001600160a01b031663313ce5676040518163ffffffff1660e01b815260040160206040518083038186803b1580156200007e57600080fd5b505afa15801562000093573d6000803e3d6000fd5b505050506040513d601f19601f82011682018060405250810190620000b99190620003a3565b8251620000ce906000906020860190620001cc565b508151620000e4906001906020850190620001cc565b507fff0000000000000000000000000000000000000000000000000000000000000060f882901b166080524660a0526200011d6200013f565b60c052505050505060601b6001600160601b03191660e05250620004fd915050565b60007f8b73c3c69bb8fe3d512ecc4cf759cc79239f7b179b0ffacaa9a75d522b39400f6000604051620001739190620003cd565b604051908190038120620001b192917fc89efdaa54c0f20c7adf612882df0950f5a951637e0307cdcb4c672f298b8bc6904690309060200162000472565b60405160208183030381529060405280519060200120905090565b828054620001da90620004aa565b90600052602060002090601f016020900481019282620001fe576000855562000249565b82601f106200021957805160ff191683800117855562000249565b8280016001018555821562000249579182015b82811115620002495782518255916020019190600101906200022c565b50620002579291506200025b565b5090565b5b808211156200025757600081556001016200025c565b600082601f83011262000283578081fd5b81516001600160401b0380821115620002a057620002a0620004e7565b6040516020601f8401601f1916820181018381118382101715620002c857620002c8620004e7565b6040528382528584018101871015620002df578485fd5b8492505b83831015620003025785830181015182840182015291820191620002e3565b838311156200031357848185840101525b5095945050505050565b60008060006060848603121562000332578283fd5b83516001600160a01b038116811462000349578384fd5b60208501519093506001600160401b038082111562000366578384fd5b620003748783880162000272565b935060408601519150808211156200038a578283fd5b50620003998682870162000272565b9150509250925092565b600060208284031215620003b5578081fd5b815160ff81168114620003c6578182fd5b9392505050565b8154600090819060028104600180831680620003ea57607f831692505b60208084108214156200040b57634e487b7160e01b87526022600452602487fd5b818015620004225760018114620004345762000464565b60ff1986168952848901965062000464565b6200043f8a6200049e565b885b868110156200045c5781548b82015290850190830162000441565b505084890196505b509498975050505050505050565b9485526020850193909352604084019190915260608301526001600160a01b0316608082015260a00190565b60009081526020902090565b600281046001821680620004bf57607f821691505b60208210811415620004e157634e487b7160e01b600052602260045260246000fd5b50919050565b634e487b7160e01b600052604160045260246000fd5b60805160f81c60a05160c05160e05160601c61164d620005606000396000818161040901528181610742015281816107b60152818161087d01528181610a890152610bc00152600061071e015260006106e9015260006106c3015261164d6000f3fe608060405234801561001057600080fd5b50600436106101da5760003560e01c806394bf804d11610104578063c63d75b6116100a2578063d905777e11610071578063d905777e146103ae578063dd62ed3e146103c1578063ef8b30f7146103d4578063fc407ae7146103e7576101da565b8063c63d75b6146102a5578063c6e6f59214610373578063ce96cb7714610386578063d505accf14610399576101da565b8063b3d7f6b9116100de578063b3d7f6b914610332578063b460af9414610345578063ba08765214610358578063bc368a8a1461036b576101da565b806394bf804d1461030457806395d89b4114610317578063a9059cbb1461031f576101da565b8063313ce5671161017c5780634cdad5061161014b5780634cdad506146102b85780636e553f65146102cb57806370a08231146102de5780637ecebe00146102f1576101da565b8063313ce567146102735780633644e5151461028857806338d52e0f14610290578063402d267d146102a5576101da565b8063095ea7b3116101b8578063095ea7b3146102255780630a28a4771461024557806318160ddd1461025857806323b872dd14610260576101da565b806301e1d114146101df57806306fdde03146101fd57806307a2d13a14610212575b600080fd5b6101e76103ef565b6040516101f4919061135a565b60405180910390f35b610205610493565b6040516101f491906113e1565b6101e76102203660046111f8565b610521565b6102386102333660046111cf565b610550565b6040516101f4919061134f565b6101e76102533660046111f8565b6105bb565b6101e76105db565b61023861026e366004611123565b6105e1565b61027b6106c1565b6040516101f49190611542565b6101e76106e5565b610298610740565b6040516101f4919061133b565b6101e76102b33660046110d7565b610764565b6101e76102c63660046111f8565b61076b565b6101e76102d9366004611228565b610776565b6101e76102ec3660046110d7565b61083f565b6101e76102ff3660046110d7565b610851565b6101e7610312366004611228565b610863565b610205610906565b61023861032d3660046111cf565b610913565b6101e76103403660046111f8565b610977565b6101e761035336600461124a565b610996565b6101e761036636600461124a565b610ab0565b6101e7610be7565b6101e76103813660046111f8565b610bed565b6101e76103943660046110d7565b610c0d565b6103ac6103a736600461115e565b610c2f565b005b6101e76103bc3660046110d7565b610df9565b6101e76103cf3660046110f1565b610e14565b6101e76103e23660046111f8565b610e31565b6101e7610e3c565b6040516370a0823160e01b81526000906001600160a01b037f000000000000000000000000000000000000000000000000000000000000000016906370a082319061043e90309060040161133b565b60206040518083038186803b15801561045657600080fd5b505afa15801561046a573d6000803e3d6000fd5b505050506040513d601f19601f8201168201806040525081019061048e9190611210565b905090565b600080546104a09061158b565b80601f01602080910402602001604051908101604052809291908181526020018280546104cc9061158b565b80156105195780601f106104ee57610100808354040283529160200191610519565b820191906000526020600020905b8154815290600101906020018083116104fc57829003601f168201915b505050505081565b6002546000908015610545576105406105386103ef565b849083610e42565b610547565b825b9150505b919050565b3360008181526004602090815260408083206001600160a01b038716808552925280832085905551919290917f8c5be1e5ebec7d5bd14f71427d1e84f3dd0314c0f7b2291e5b200ac8c7c3b925906105a990869061135a565b60405180910390a35060015b92915050565b600254600090801561054557610540816105d36103ef565b859190610e61565b60025481565b6001600160a01b0383166000908152600460209081526040808320338452909152812054600019811461063d576106188382611574565b6001600160a01b03861660009081526004602090815260408083203384529091529020555b6001600160a01b03851660009081526003602052604081208054859290610665908490611574565b90915550506001600160a01b03808516600081815260036020526040908190208054870190555190918716906000805160206115f8833981519152906106ac90879061135a565b60405180910390a360019150505b9392505050565b7f000000000000000000000000000000000000000000000000000000000000000081565b60007f0000000000000000000000000000000000000000000000000000000000000000461461071b57610716610e8f565b61048e565b507f000000000000000000000000000000000000000000000000000000000000000090565b7f000000000000000000000000000000000000000000000000000000000000000081565b5060001990565b60006105b582610521565b600061078183610e31565b9050806107a95760405162461bcd60e51b81526004016107a090611434565b60405180910390fd5b6107de6001600160a01b037f000000000000000000000000000000000000000000000000000000000000000016333086610f18565b6107e88282610f7b565b816001600160a01b0316336001600160a01b03167fdcbc1c05240f31ff3ad067ef1ee35ce4997762752e3a095284754544f4c709d7858460405161082d929190611534565b60405180910390a36105b58382610fd9565b60036020526000908152604090205481565b60056020526000908152604090205481565b600061086e83610977565b90506108a56001600160a01b037f000000000000000000000000000000000000000000000000000000000000000016333084610f18565b6108af8284610f7b565b816001600160a01b0316336001600160a01b03167fdcbc1c05240f31ff3ad067ef1ee35ce4997762752e3a095284754544f4c709d783866040516108f4929190611534565b60405180910390a36105b58184610fd9565b600180546104a09061158b565b33600090815260036020526040812080548391908390610934908490611574565b90915550506001600160a01b038316600081815260036020526040908190208054850190555133906000805160206115f8833981519152906105a990869061135a565b60025460009080156105455761054061098e6103ef565b849083610e61565b60006109a1846105bb565b9050336001600160a01b03831614610a11576001600160a01b03821660009081526004602090815260408083203384529091529020546000198114610a0f576109ea8282611574565b6001600160a01b03841660009081526004602090815260408083203384529091529020555b505b610a1b8482610ff2565b610a258282611002565b816001600160a01b0316836001600160a01b0316336001600160a01b03167ffbde797d201c681b91056529119e0b02407c7bb96a4a2c75c01fc9667232c8db8785604051610a74929190611534565b60405180910390a46106ba6001600160a01b037f0000000000000000000000000000000000000000000000000000000000000000168486611064565b6000336001600160a01b03831614610b20576001600160a01b03821660009081526004602090815260408083203384529091529020546000198114610b1e57610af98582611574565b6001600160a01b03841660009081526004602090815260408083203384529091529020555b505b610b298461076b565b905080610b485760405162461bcd60e51b81526004016107a0906114d8565b610b528185610ff2565b610b5c8285611002565b816001600160a01b0316836001600160a01b0316336001600160a01b03167ffbde797d201c681b91056529119e0b02407c7bb96a4a2c75c01fc9667232c8db8488604051610bab929190611534565b60405180910390a46106ba6001600160a01b037f0000000000000000000000000000000000000000000000000000000000000000168483611064565b60065481565b60025460009080156105455761054081610c056103ef565b859190610e42565b6001600160a01b0381166000908152600360205260408120546105b590610521565b42841015610c4f5760405162461bcd60e51b81526004016107a0906114fd565b60006001610c5b6106e5565b6001600160a01b038a166000908152600560209081526040918290208054600181019091559151610cb8927f6e71edae12b1b97f4d1f60370fef10105fa2faae0126114a169c64845d6126c9928e928e928e9290918e9101611363565b60405160208183030381529060405280519060200120604051602001610cdf929190611320565b6040516020818303038152906040528051906020012085858560405160008152602001604052604051610d1594939291906113c3565b6020604051602081039080840390855afa158015610d37573d6000803e3d6000fd5b5050604051601f1901519150506001600160a01b03811615801590610d6d5750876001600160a01b0316816001600160a01b0316145b610d895760405162461bcd60e51b81526004016107a0906114b0565b6001600160a01b0390811660009081526004602090815260408083208a8516808552925291829020889055905190918916907f8c5be1e5ebec7d5bd14f71427d1e84f3dd0314c0f7b2291e5b200ac8c7c3b92590610de890899061135a565b60405180910390a350505050505050565b6001600160a01b031660009081526003602052604090205490565b600460209081526000928352604080842090915290825290205481565b60006105b582610bed565b60075481565b828202811515841585830485141716610e5a57600080fd5b0492915050565b828202811515841585830485141716610e7957600080fd5b6001826001830304018115150290509392505050565b60007f8b73c3c69bb8fe3d512ecc4cf759cc79239f7b179b0ffacaa9a75d522b39400f6000604051610ec19190611285565b604051908190038120610efd92917fc89efdaa54c0f20c7adf612882df0950f5a951637e0307cdcb4c672f298b8bc69046903090602001611397565b60405160208183030381529060405280519060200120905090565b60006040516323b872dd60e01b81528460048201528360248201528260448201526020600060648360008a5af13d15601f3d1160016000511416171691505080610f745760405162461bcd60e51b81526004016107a090611459565b5050505050565b8060026000828254610f8d919061155c565b90915550506001600160a01b038216600081815260036020526040808220805485019055516000805160206115f883398151915290610fcd90859061135a565b60405180910390a35050565b60078054906000610fe9836115c6565b91905055505050565b60068054906000610fe9836115c6565b6001600160a01b0382166000908152600360205260408120805483929061102a908490611574565b90915550506002805482900390556040516000906001600160a01b038416906000805160206115f883398151915290610fcd90859061135a565b600060405163a9059cbb60e01b8152836004820152826024820152602060006044836000895af13d15601f3d11600160005114161716915050806110ba5760405162461bcd60e51b81526004016107a090611487565b50505050565b80356001600160a01b038116811461054b57600080fd5b6000602082840312156110e8578081fd5b6106ba826110c0565b60008060408385031215611103578081fd5b61110c836110c0565b915061111a602084016110c0565b90509250929050565b600080600060608486031215611137578081fd5b611140846110c0565b925061114e602085016110c0565b9150604084013590509250925092565b600080600080600080600060e0888a031215611178578283fd5b611181886110c0565b965061118f602089016110c0565b95506040880135945060608801359350608088013560ff811681146111b2578384fd5b9699959850939692959460a0840135945060c09093013592915050565b600080604083850312156111e1578182fd5b6111ea836110c0565b946020939093013593505050565b600060208284031215611209578081fd5b5035919050565b600060208284031215611221578081fd5b5051919050565b6000806040838503121561123a578182fd5b8235915061111a602084016110c0565b60008060006060848603121561125e578283fd5b8335925061126e602085016110c0565b915061127c604085016110c0565b90509250925092565b81546000908190600281046001808316806112a157607f831692505b60208084108214156112c157634e487b7160e01b87526022600452602487fd5b8180156112d557600181146112e657611312565b60ff19861689528489019650611312565b6112ef8a611550565b885b8681101561130a5781548b8201529085019083016112f1565b505084890196505b509498975050505050505050565b61190160f01b81526002810192909252602282015260420190565b6001600160a01b0391909116815260200190565b901515815260200190565b90815260200190565b9586526001600160a01b0394851660208701529290931660408501526060840152608083019190915260a082015260c00190565b9485526020850193909352604084019190915260608301526001600160a01b0316608082015260a00190565b93845260ff9290921660208401526040830152606082015260800190565b6000602080835283518082850152825b8181101561140d578581018301518582016040015282016113f1565b8181111561141e5783604083870101525b50601f01601f1916929092016040019392505050565b6020808252600b908201526a5a45524f5f53484152455360a81b604082015260600190565b6020808252601490820152731514905394d1915497d19493d357d1905253115160621b604082015260600190565b6020808252600f908201526e1514905394d1915497d19052531151608a1b604082015260600190565b6020808252600e908201526d24a72b20a624a22fa9a4a3a722a960911b604082015260600190565b6020808252600b908201526a5a45524f5f41535345545360a81b604082015260600190565b60208082526017908201527f5045524d49545f444541444c494e455f45585049524544000000000000000000604082015260600190565b918252602082015260400190565b60ff91909116815260200190565b60009081526020902090565b6000821982111561156f5761156f6115e1565b500190565b600082821015611586576115866115e1565b500390565b60028104600182168061159f57607f821691505b602082108114156115c057634e487b7160e01b600052602260045260246000fd5b50919050565b60006000198214156115da576115da6115e1565b5060010190565b634e487b7160e01b600052601160045260246000fdfeddf252ad1be2c89b69c2b068fc378daa952ba7f163c4a11628f55a4df523b3efa2646970667358221220d35d6b81ca680dba77b354cd90788feacc2ff60d8ced7413a6bea29f9fdbcac864736f6c63430008000033",
  "linkReferences": {},
  "deployedLinkReferences": {}
}